{
  "address": "0xb28721f7b977D64F9401161EA91bC25D59F25308",
  "abi": [
    {
      "inputs": [
        {
          "internalType": "address",
          "name": "controller",
          "type": "address"
        },
        {
          "internalType": "address",
          "name": "newAgent",
          "type": "address"
        },
        {
          "internalType": "contract IERC20",
          "name": "_token",
          "type": "address"
        }
      ],
      "stateMutability": "nonpayable",
      "type": "constructor"
    },
    {
      "inputs": [],
      "name": "AddingUserEnded",
      "type": "error"
    },
    {
      "inputs": [],
      "name": "AddressMustBeArrayOfOneAddress",
      "type": "error"
    },
    {
      "inputs": [],
      "name": "AgentAddressIsTheSame",
      "type": "error"
    },
    {
      "inputs": [],
      "name": "CollateralCoverageCannotGoBelow_100",
      "type": "error"
    },
    {
      "inputs": [],
      "name": "CollaterlCoverageTooLow",
      "type": "error"
    },
    {
      "inputs": [],
      "name": "DurationExceed720HoursOrIsZero",
      "type": "error"
    },
    {
      "inputs": [],
      "name": "GettingFinanceNotReady",
      "type": "error"
    },
    {
      "inputs": [],
      "name": "InsufficientCollateral",
      "type": "error"
    },
    {
      "inputs": [],
      "name": "InvalidAgentAddress",
      "type": "error"
    },
    {
      "inputs": [],
      "name": "InvalidSafe",
      "type": "error"
    },
    {
      "inputs": [],
      "name": "InvalidTokenAddress",
      "type": "error"
    },
    {
      "inputs": [],
      "name": "NoDebtFound",
      "type": "error"
    },
    {
      "inputs": [],
      "name": "OnlyContributorIsAllowed",
      "type": "error"
    },
    {
      "inputs": [],
      "name": "OnlyNonContributorIsAllowed",
      "type": "error"
    },
    {
      "inputs": [
        {
          "internalType": "address",
          "name": "owner",
          "type": "address"
        }
      ],
      "name": "OwnableInvalidOwner",
      "type": "error"
    },
    {
      "inputs": [
        {
          "internalType": "address",
          "name": "account",
          "type": "address"
        }
      ],
      "name": "OwnableUnauthorizedAccount",
      "type": "error"
    },
    {
      "inputs": [],
      "name": "PaybackModeNotActivated",
      "type": "error"
    },
    {
      "inputs": [],
      "name": "PoolBalanceNotTally",
      "type": "error"
    },
    {
      "inputs": [],
      "name": "PoolIsTaken",
      "type": "error"
    },
    {
      "inputs": [],
      "name": "SafeBalanceDepleted",
      "type": "error"
    },
    {
      "inputs": [],
      "name": "TokenAddressIsTheSame",
      "type": "error"
    },
    {
      "inputs": [],
      "name": "TokenBalanceInSafeNotTally",
      "type": "error"
    },
    {
      "inputs": [],
      "name": "TurnTimeHasNotPassed",
      "type": "error"
    },
    {
      "inputs": [],
      "name": "UserArrayExceedOne",
      "type": "error"
    },
    {
      "anonymous": false,
      "inputs": [
        {
          "indexed": true,
          "internalType": "address",
          "name": "previousOwner",
          "type": "address"
        },
        {
          "indexed": true,
          "internalType": "address",
          "name": "newOwner",
          "type": "address"
        }
      ],
      "name": "OwnershipTransferred",
      "type": "event"
    },
    {
      "inputs": [
        {
          "internalType": "uint256",
          "name": "unit",
          "type": "uint256"
        }
      ],
      "name": "_getSafe",
      "outputs": [
        {
          "components": [
            {
              "internalType": "address",
              "name": "id",
              "type": "address"
            },
            {
              "internalType": "bytes32",
              "name": "ownerHash",
              "type": "bytes32"
            }
          ],
          "internalType": "struct Common.Safe",
          "name": "safe",
          "type": "tuple"
        }
      ],
      "stateMutability": "view",
      "type": "function"
    },
    {
      "inputs": [
        {
          "internalType": "uint256",
          "name": "unit",
          "type": "uint256"
        },
        {
          "internalType": "address[]",
          "name": "user",
          "type": "address[]"
        }
      ],
      "name": "addUserToPool",
      "outputs": [
        {
          "internalType": "bool",
          "name": "",
          "type": "bool"
        }
      ],
      "stateMutability": "nonpayable",
      "type": "function"
    },
    {
      "inputs": [
        {
          "internalType": "uint256",
          "name": "",
          "type": "uint256"
        },
        {
          "internalType": "uint256",
          "name": "",
          "type": "uint256"
        }
      ],
      "name": "contributors",
      "outputs": [
        {
          "internalType": "bool",
          "name": "isMember",
          "type": "bool"
        },
        {
          "internalType": "uint256",
          "name": "payDate",
          "type": "uint256"
        },
        {
          "internalType": "uint256",
          "name": "turnTime",
          "type": "uint256"
        },
        {
          "internalType": "uint256",
          "name": "loan",
          "type": "uint256"
        },
        {
          "internalType": "uint256",
          "name": "colBals",
          "type": "uint256"
        },
        {
          "internalType": "address",
          "name": "id",
          "type": "address"
        },
        {
          "internalType": "bool",
          "name": "sentQuota",
          "type": "bool"
        }
      ],
      "stateMutability": "view",
      "type": "function"
    },
    {
      "inputs": [
        {
          "internalType": "address",
          "name": "newSafe",
          "type": "address"
        },
        {
          "internalType": "address[]",
          "name": "users",
          "type": "address[]"
        },
        {
          "internalType": "uint256",
          "name": "unit",
          "type": "uint256"
        },
        {
          "internalType": "uint16",
          "name": "intRate",
          "type": "uint16"
        },
        {
          "internalType": "uint16",
          "name": "durationInHours",
          "type": "uint16"
        },
        {
          "internalType": "uint24",
          "name": "colCoverage",
          "type": "uint24"
        }
      ],
      "name": "createPermissionedPool",
      "outputs": [
        {
          "internalType": "bool",
          "name": "",
          "type": "bool"
        }
      ],
      "stateMutability": "nonpayable",
      "type": "function"
    },
    {
      "inputs": [
        {
          "internalType": "address",
          "name": "newSafe",
          "type": "address"
        },
        {
          "internalType": "address[]",
          "name": "users",
          "type": "address[]"
        },
        {
          "internalType": "uint256",
          "name": "unit",
          "type": "uint256"
        },
        {
          "internalType": "uint8",
          "name": "quorum",
          "type": "uint8"
        },
        {
          "internalType": "uint16",
          "name": "intRate",
          "type": "uint16"
        },
        {
          "internalType": "uint16",
          "name": "durationInHours",
          "type": "uint16"
        },
        {
          "internalType": "uint24",
          "name": "colCoverage",
          "type": "uint24"
        }
      ],
      "name": "createPermissionlessPool",
      "outputs": [
        {
          "internalType": "bool",
          "name": "",
          "type": "bool"
        }
      ],
      "stateMutability": "nonpayable",
      "type": "function"
    },
    {
      "inputs": [
        {
          "internalType": "uint256",
          "name": "unit",
          "type": "uint256"
        }
      ],
      "name": "getCollateralQuote",
      "outputs": [
        {
          "internalType": "uint256",
          "name": "quote",
          "type": "uint256"
        }
      ],
      "stateMutability": "view",
      "type": "function"
    },
    {
      "inputs": [
        {
          "internalType": "uint256",
          "name": "unit",
          "type": "uint256"
        },
        {
          "internalType": "address",
          "name": "user",
          "type": "address"
        }
      ],
      "name": "getCurrentDebt",
      "outputs": [
        {
          "internalType": "uint256",
          "name": "debt",
          "type": "uint256"
        }
      ],
      "stateMutability": "view",
      "type": "function"
    },
    {
      "inputs": [
        {
          "internalType": "uint256",
          "name": "unit",
          "type": "uint256"
        },
        {
          "internalType": "address",
          "name": "user",
          "type": "address"
        }
      ],
      "name": "getFinance",
      "outputs": [
        {
          "internalType": "bool",
          "name": "",
          "type": "bool"
        }
      ],
      "stateMutability": "nonpayable",
      "type": "function"
    },
    {
      "inputs": [
        {
          "internalType": "address",
          "name": "user",
          "type": "address"
        }
      ],
      "name": "getPoint",
      "outputs": [
        {
          "components": [
            {
              "internalType": "uint256",
              "name": "contributor",
              "type": "uint256"
            },
            {
              "internalType": "uint256",
              "name": "creator",
              "type": "uint256"
            }
          ],
          "internalType": "struct Common.Point",
          "name": "",
          "type": "tuple"
        }
      ],
      "stateMutability": "view",
      "type": "function"
    },
    {
      "inputs": [
        {
          "internalType": "uint256",
          "name": "unit",
          "type": "uint256"
        }
      ],
      "name": "getSafe",
      "outputs": [
        {
          "components": [
            {
              "internalType": "address",
              "name": "id",
              "type": "address"
            },
            {
              "internalType": "bytes32",
              "name": "ownerHash",
              "type": "bytes32"
            }
          ],
          "internalType": "struct Common.Safe",
          "name": "",
          "type": "tuple"
        }
      ],
      "stateMutability": "view",
      "type": "function"
    },
    {
      "inputs": [
        {
          "internalType": "uint256",
          "name": "unit",
          "type": "uint256"
        }
      ],
      "name": "isPoolAvailable",
      "outputs": [
        {
          "internalType": "bool",
          "name": "",
          "type": "bool"
        }
      ],
      "stateMutability": "view",
      "type": "function"
    },
    {
      "inputs": [
        {
          "internalType": "uint256",
          "name": "unit",
          "type": "uint256"
        }
      ],
      "name": "isPoolVacant",
      "outputs": [
        {
          "internalType": "bool",
          "name": "",
          "type": "bool"
        }
      ],
      "stateMutability": "view",
      "type": "function"
    },
    {
      "inputs": [],
      "name": "makerRate",
      "outputs": [
        {
          "internalType": "uint256",
          "name": "",
          "type": "uint256"
        }
      ],
      "stateMutability": "view",
      "type": "function"
    },
    {
      "inputs": [],
      "name": "owner",
      "outputs": [
        {
          "internalType": "address",
          "name": "",
          "type": "address"
        }
      ],
      "stateMutability": "view",
      "type": "function"
    },
    {
      "inputs": [],
      "name": "pastRecords",
      "outputs": [
        {
          "internalType": "uint256",
          "name": "",
          "type": "uint256"
        }
      ],
      "stateMutability": "view",
      "type": "function"
    },
    {
      "inputs": [
        {
          "internalType": "uint256",
          "name": "unit",
          "type": "uint256"
        },
        {
          "internalType": "address",
          "name": "user",
          "type": "address"
        }
      ],
      "name": "payback",
      "outputs": [
        {
          "internalType": "bool",
          "name": "",
          "type": "bool"
        }
      ],
      "stateMutability": "nonpayable",
      "type": "function"
    },
    {
      "inputs": [
        {
          "internalType": "address",
          "name": "",
          "type": "address"
        },
        {
          "internalType": "uint256",
          "name": "",
          "type": "uint256"
        }
      ],
      "name": "positions",
      "outputs": [
        {
          "internalType": "uint256",
          "name": "",
          "type": "uint256"
        }
      ],
      "stateMutability": "view",
      "type": "function"
    },
    {
      "inputs": [],
      "name": "renounceOwnership",
      "outputs": [],
      "stateMutability": "nonpayable",
      "type": "function"
    },
    {
      "inputs": [
        {
          "internalType": "address",
          "name": "newAgent",
          "type": "address"
        }
      ],
      "name": "replaceAgent",
      "outputs": [],
      "stateMutability": "nonpayable",
      "type": "function"
    },
    {
      "inputs": [
        {
          "internalType": "uint16",
          "name": "newRate",
          "type": "uint16"
        }
      ],
      "name": "setFee",
      "outputs": [],
      "stateMutability": "nonpayable",
      "type": "function"
    },
    {
      "inputs": [
        {
          "internalType": "contract IERC20",
          "name": "newToken",
          "type": "address"
        }
      ],
      "name": "setToken",
      "outputs": [],
      "stateMutability": "nonpayable",
      "type": "function"
    },
    {
      "inputs": [],
      "name": "token",
      "outputs": [
        {
          "internalType": "contract IERC20",
          "name": "",
          "type": "address"
        }
      ],
      "stateMutability": "view",
      "type": "function"
    },
    {
      "inputs": [
        {
          "internalType": "address",
          "name": "newOwner",
          "type": "address"
        }
      ],
      "name": "transferOwnership",
      "outputs": [],
      "stateMutability": "nonpayable",
      "type": "function"
    },
    {
      "inputs": [
        {
          "internalType": "uint256",
          "name": "",
          "type": "uint256"
        }
      ],
      "name": "userCounts",
      "outputs": [
        {
          "internalType": "uint256",
          "name": "",
          "type": "uint256"
        }
      ],
      "stateMutability": "view",
      "type": "function"
    }
  ],
  "transactionHash": "0x05eb5d1969a08360010b14de24d08abf8d5a9ecf27b01e2b565e19dec1711164",
  "args": [
    "0xD7c271d20c9E323336bFC843AEb8deC23B346352",
    "0xF1450c7F1CADE2Ff5Ec70e2Ffb191107352F4720",
    "0xe09e23F8a8032BB39326098802c970f9b48D726C"
  ],
  "numDeployments": 1,
  "solcInputHash": "7827f01f057b6f467a787f9d9d8d5432",
  "bytecode": "0x60806040523480156200001157600080fd5b50604051620029933803806200299383398101604081905262000034916200011d565b828282808383816001600160a01b0381166200006a57604051631e4fbdf760e01b81526000600482015260240160405180910390fd5b6200007581620000b4565b50600180546001600160a01b039283166001600160a01b0319918216179091556007805494909216931692909217909155506200017195505050505050565b600080546001600160a01b038381166001600160a01b0319831681178455604051919092169283917f8be0079c531659141344cd1fd0a4f28419497f9722a3daafe3b4186f6b6457e09190a35050565b6001600160a01b03811681146200011a57600080fd5b50565b6000806000606084860312156200013357600080fd5b8351620001408162000104565b6020850151909350620001538162000104565b6040850151909250620001668162000104565b809150509250925092565b61281280620001816000396000f3fe608060405234801561001057600080fd5b50600436106101585760003560e01c80638e005553116100c3578063d084b9af1161007c578063d084b9af146103c3578063d8d8f686146103d6578063f09734ec146103e9578063f2fde38b146103fc578063fc0c546a1461040f578063ff638eb91461042257600080fd5b80638e005553146103395780638f26fd321461034c5780639609e4e01461035f5780639d67229414610372578063c1be667714610385578063c1d27947146103b057600080fd5b80634ff531b6116101155780634ff531b61461021157806354346b661461023f578063553c305a146102e6578063715018a6146102f957806383d0f8d2146103015780638da5cb5b1461031457600080fd5b806302a501a11461015d5780631087ebf314610199578063144fa6d7146101b05780631cb77205146101c5578063435daefc146101e55780634eadf298146101ee575b600080fd5b61017061016b366004612222565b610435565b6040805182516001600160a01b0316815260209283015192810192909252015b60405180910390f35b6101a260035481565b604051908152602001610190565b6101c36101be366004612250565b61047c565b005b6101a26101d3366004612222565b60096020526000908152604090205481565b6101a260025481565b6102016101fc366004612352565b610490565b6040519015158152602001610190565b61022461021f366004612250565b6104b1565b60408051825181526020928301519281019290925201610190565b6102a461024d3660046123dc565b600860209081526000928352604080842090915290825290208054600182015460028301546003840154600485015460059095015460ff948516959394929391926001600160a01b03821691600160a01b90041687565b604080519715158852602088019690965294860193909352606085019190915260808401526001600160a01b031660a0830152151560c082015260e001610190565b6102016102f4366004612222565b610506565b6101c3610540565b61017061030f366004612222565b610554565b6000546001600160a01b03165b6040516001600160a01b039091168152602001610190565b6101c36103473660046123fe565b610571565b61020161035a366004612419565b610582565b61020161036d366004612222565b6105a3565b6101a2610380366004612222565b6105d2565b6101a26103933660046124bd565b600a60209081526000928352604080842090915290825290205481565b6102016103be3660046124e9565b6105dd565b6102016103d1366004612530565b6108c3565b6101c36103e4366004612250565b610aff565b6101a26103f7366004612530565b610b7f565b6101c361040a366004612250565b610b92565b600754610321906001600160a01b031681565b610201610430366004612530565b610bcd565b604080518082019091526000808252602082015250600090815260056020908152604091829020825180840190935280546001600160a01b03168352600101549082015290565b610484610e76565b61048d81610ea3565b50565b60006104a487878789518888886001610f1b565b5060019695505050505050565b604080518082018252600080825260208083018290528351808501855282815281018290526001600160a01b038516825260068152908390208351808501909452805484526001015490830152905b92915050565b6000818152600460209081526040808320838052909152812060050154819060ff16600181111561053957610539612560565b1492915050565b610548610e76565b6105526000611249565b565b604080518082019091526000808252602082015261050082610435565b610579610e76565b61ffff16600255565b6000610595888888888888886000610f1b565b506001979650505050505050565b60006105b0826000611299565b60400151516105cb8360009081526009602052604090205490565b1092915050565b60006105008261143c565b6000806105eb846000611299565b905060006106138460008151811061060557610605612576565b602002602001015186611495565b905061062184866000611534565b5060608201516020018051860190526000826040015160a00151600581111561064c5761064c612560565b1461066a5760405163764e1ce760e11b815260040160405180910390fd5b60018451111561068d57604051638ae4b6fd60e01b815260040160405180910390fd5b6060820151602001516007546001600160a01b03166370a082316106b088610435565b5160405160e083901b6001600160e01b03191681526001600160a01b039091166004820152602401602060405180830381865afa1580156106f5573d6000803e3d6000fd5b505050506040513d601f19601f82011682018060405250810190610719919061258c565b101561073857604051631895d44960e21b815260040160405180910390fd5b6000826040015160800151600181111561075457610754612560565b0361079f5780511561079a5760405162461bcd60e51b815260206004820152600a602482015269155cd95c88195e1a5cdd60b21b60448201526064015b60405180910390fd5b6107f0565b805180156107af57508060c00151155b6107f05760405162461bcd60e51b8152602060048201526012602482015271416c72656164792073656e742071756f746160701b6044820152606401610791565b6107f98561168f565b610862856040518060e00160405280600115158152602001600081526020016000815260200160008152602001600081526020018760008151811061084057610840612576565b60200260200101516001600160a01b03168152602001600115158152506116b6565b60408201515161087e8660009081526009602052604090205490565b036108ac57604082810151600160a090910152600086815260096020529081205581516108ac90864261177b565b6108b8828660006117f5565b506001949350505050565b6000806108d1846000611299565b905060006108df8486611495565b90506002826040015160a0015160058111156108fd576108fd612560565b1461091b5760405163bd13e09360e01b815260040160405180910390fd5b6000610927868661195a565b90508060000361094a57604051633c74e66760e01b815260040160405180910390fd5b6000606083018190526040848101515188835260096020529120541480610a5e57604084015151606085015151610980916119c0565b6060850180516020908101929092525101516007546001600160a01b03166370a082316109ac8a610435565b5160405160e083901b6001600160e01b03191681526001600160a01b039091166004820152602401602060405180830381865afa1580156109f1573d6000803e3d6000fd5b505050506040513d601f19601f82011682018060405250810190610a15919061258c565b1015610a345760405163589af56f60e11b815260040160405180910390fd5b6040840151600160a090910152610a4d6000884261177b565b610a59848860006117f5565b610af5565b6040840151600560a090910152610a77848860016117f5565b6000878152600460208181526040808420848052909152822080546001600160a01b031990811682556001820180549091169055600281018390556003810183905590810182905560058101805462ffffff1916905560068101829055600781018290556008810182905560098101829055600a8101829055600b01555b6104a487846116b6565b610b07610e76565b6001600160a01b038116610b2e57604051635697b36760e01b815260040160405180910390fd5b6001546001600160a01b0390811690821603610b5d57604051630241da2360e31b815260040160405180910390fd5b600180546001600160a01b0319166001600160a01b0392909216919091179055565b6000610b8b838361195a565b9392505050565b610b9a610e76565b6001600160a01b038116610bc457604051631e4fbdf760e01b815260006004820152602401610791565b61048d81611249565b600080610bdb846000611299565b90506000610be8856119cc565b90506000610bf586610435565b5160408301516001600160a01b03909116319150610c1590610e106125bb565b4267ffffffffffffffff161115610c56578160a001516001600160a01b0316856001600160a01b031614610c5157610c4e868684611a5b565b91505b610c8c565b8160a001516001600160a01b0316856001600160a01b031614610c8c576040516328c3314560e11b815260040160405180910390fd5b6001836040015160a001516005811115610ca857610ca8612560565b14610cc657604051631b7dbc4160e31b815260040160405180910390fd5b6060830151602001516007546001600160a01b03166370a08231610ce989610435565b5160405160e083901b6001600160e01b03191681526001600160a01b039091166004820152602401602060405180830381865afa158015610d2e573d6000803e3d6000fd5b505050506040513d601f19601f82011682018060405250810190610d52919061258c565b1015610d7157604051631895d44960e21b815260040160405180910390fd5b6060830151602081015160408501515191519091610d8f91906119c0565b1015610dae5760405163080fe36d60e31b815260040160405180910390fd5b610dbc8260a0015187611de1565b6000610ddb600254856060015160200151611e0d90919063ffffffff16565b9050610de68761143c565b60808401819052821015610e0d57604051633a23d82560e01b815260040160405180910390fd5b606084015160200151610e209082611e19565b60608481019190915260a0808501516001600160a01b031660208781019190915291860151600092019190915260408501516002910152610e6187846116b6565b610e6d848860006117f5565b6104a48761168f565b6000546001600160a01b031633146105525760405163118cdaa760e01b8152336004820152602401610791565b6001600160a01b038116610eca57604051630f58058360e11b815260040160405180910390fd5b6007546001600160a01b0390811690821603610ef9576040516372b0ef7f60e01b815260040160405180910390fd5b600780546001600160a01b0319166001600160a01b0392909216919091179055565b600187511115610f3e576040516367e6d2c160e01b815260040160405180910390fd5b6000610f6588888a600081518110610f5857610f58612576565b6020026020010151611534565b90506000610f7288610435565b516001600160a01b0316036110a6576001600160a01b038916610fa857604051633f695ffd60e01b815260040160405180910390fd5b86610fbb6007546001600160a01b031690565b6040516370a0823160e01b81526001600160a01b038c8116600483015291909116906370a0823190602401602060405180830381865afa158015611003573d6000803e3d6000fd5b505050506040513d601f19601f82011682018060405250810190611027919061258c565b101561105f5760405162461bcd60e51b81526020600482015260076024820152664c6f77204c697160c81b6044820152606401610791565b6040805180820182526001600160a01b03808c168252602080830185815260008c81526005909252939020915182546001600160a01b031916911617815590516001909101555b60016110b3886001611299565b604001516060015160018111156110cc576110cc612560565b036110ea57604051630fbea31360e41b815260040160405180910390fd5b60648362ffffff161015611111576040516361ae5e4360e01b815260040160405180910390fd5b61ffff8416158061112757506102d08461ffff16115b156111455760405163014c22b760e21b815260040160405180910390fd5b6112356040518060a001604052808a60008151811061116657611166612576565b60200260200101516001600160a01b0316815260200160006001600160a01b031681526020016040518060c001604052808a60ff1681526020018762ffffff16815260200188610e100261ffff1681526020016001808111156111cb576111cb612560565b81526020018660018111156111e2576111e2612560565b81526020016000815250815260200160405180606001604052808b81526020018b8152602001611210611e25565b9052815260200161122b60ff8a168b028961ffff8a16611e3f565b90528860006117f5565b61123e8761168f565b505050505050505050565b600080546001600160a01b038381166001600160a01b0319831681178455604051919092169283917f8be0079c531659141344cd1fd0a4f28419497f9722a3daafe3b4186f6b6457e09190a35050565b6112a161211c565b6000838152600460205260408120908360018111156112c2576112c2612560565b60018111156112d3576112d3612560565b81526020808201929092526040908101600020815160a08101835281546001600160a01b03908116825260018084015490911682860152835160c081018552600284018054825260038501549682019690965260048401548186015260058401549295939486019390929091606084019160ff169081111561135757611357612560565b600181111561136857611368612560565b81526020016003820160019054906101000a900460ff16600181111561139057611390612560565b60018111156113a1576113a1612560565b81526020016003820160029054906101000a900460ff1660058111156113c9576113c9612560565b60058111156113da576113da612560565b90525081526040805160608082018352600685015482526007850154602080840191909152600886015483850152808501929092528251908101835260098501548152600a85015491810191909152600b909301548382015201529392505050565b60008061144a836000611299565b9050610b8b816040015160200151826060015160200151604051806040016040528061147b678ac7230489e8000090565b6001600160801b0316815260126020909101529190611f03565b61149d612192565b506001600160a01b039182166000908152600a602090815260408083209383529281528282205460088252838320908352815290829020825160e081018452815460ff9081161515825260018301549382019390935260028201549381019390935260038101546060840152600481015460808401526005015492831660a0830152600160a01b909204909116151560c082015290565b8251600090815b8181101561168657600086828151811061155757611557612576565b60200260200101519050846001600160a01b0316816001600160a01b0316036115c55783816040516020016115a892919091825260601b6bffffffffffffffffffffffff1916602082015260340190565b60405160208183030381529060405280519060200120935061160e565b60408051602081018690526bffffffffffffffffffffffff19606084901b1691810191909152605481018790526074016040516020818303038152906040528051906020012093505b61161b8160006002611f93565b61167d866040518060e00160405280886001600160a01b0316856001600160a01b0316141515815260200160008152602001600081526020016000815260200160008152602001846001600160a01b03168152602001600115158152506116b6565b5060010161153b565b50509392505050565b60008181526009602052604081208054600192906116ae9084906125bb565b909155505050565b6000828152600960205260409020546116d08160016125bb565b6000848152600960209081526040808320939093556008815282822084835281528282208551815490151560ff19909116178155858201516001820155858401516002820155606086015160038201556080860151600482015560a08601516005909101805460c0909701511515600160a01b026001600160a81b03199097166001600160a01b0390921691821796909617909555938152600a845281812094815293909252912055565b60006001600160a01b0384166117a057506000828152600960205260409020546117c6565b506001600160a01b0383166000908152600a602090815260408083208584529091529020545b600092835260086020908152604080852092855291905290912067ffffffffffffffff90911660029091015550565b6000828152600460205260408120849183600181111561181757611817612560565b600181111561182857611828612560565b81526020808201929092526040908101600020835181546001600160a01b03199081166001600160a01b039283161783558585015160018085018054909316919093161790558483015180516002840190815594810151600384015592830151600483015560608301516005830180549395939192909160ff19169083818111156118b5576118b5612560565b0217905550608082015160038201805461ff0019166101008360018111156118df576118df612560565b021790555060a082015160038201805462ff000019166201000083600581111561190b5761190b612560565b02179055505050606082015180516006830155602080820151600784015560409182015160088401556080909301518051600984015592830151600a8301559190910151600b90910155505050565b600080611968846000611299565b60800151602001519050600061197e8486611495565b90506119b76119ac6119a583604001516119954290565b67ffffffffffffffff1690611e19565b84906119c0565b606083015190612003565b95945050505050565b6000610b8b82846125ce565b6119d4612192565b5060009081526009602090815260408083205460088352818420908452825291829020825160e081018452815460ff908116151582526001830154938201939093526002820154938101939093526003810154606084015260048101546080840152600501546001600160a01b03811660a0840152600160a01b900416151560c082015290565b611a63612192565b6000600a6000856001600160a01b03166001600160a01b0316815260200190815260200160002060008681526020019081526020016000205490506000600a60008560a001516001600160a01b03166001600160a01b0316815260200190815260200160002060008781526020019081526020016000205490506008600087815260200190815260200160002060008381526020019081526020016000206040518060e00160405290816000820160009054906101000a900460ff16151515158152602001600182015481526020016002820154815260200160038201548152602001600482015481526020016005820160009054906101000a90046001600160a01b03166001600160a01b03166001600160a01b031681526020016005820160149054906101000a900460ff1615151515815250509250836040015183604001818152505060008460400181815250508260086000888152602001908152602001600020600083815260200190815260200160002060008201518160000160006101000a81548160ff0219169083151502179055506020820151816001015560408201518160020155606082015181600301556080820151816004015560a08201518160050160006101000a8154816001600160a01b0302191690836001600160a01b0316021790555060c08201518160050160146101000a81548160ff0219169083151502179055509050508360086000888152602001908152602001600020600084815260200190815260200160002060008201518160000160006101000a81548160ff0219169083151502179055506020820151816001015560408201518160020155606082015181600301556080820151816004015560a08201518160050160006101000a8154816001600160a01b0302191690836001600160a01b0316021790555060c08201518160050160146101000a81548160ff02191690831515021790555090505080600a6000876001600160a01b03166001600160a01b0316815260200190815260200160002060008881526020019081526020016000208190555081600a60008660a001516001600160a01b03166001600160a01b0316815260200190815260200160002060008881526020019081526020016000208190555083604001516008600088815260200190815260200160002060008481526020019081526020016000206002018190555050509392505050565b611deb8282611495565b51611e0957604051633381e38f60e01b815260040160405180910390fd5b5050565b6000610b8b838361200f565b6000610b8b82846125e5565b600380549081906000611e37836125f8565b919050555090565b611e6360405180606001604052806000815260200160008152602001600081525090565b611e8760405180606001604052806000815260200160008152602001600081525090565b611ec562278d0062ffffff85169081111590611ea490603c6120b6565b600014604051806060016040528060258152602001612792602591396120c2565b611ecf858561200f565b80825215611efb578051611ef59062ffffff851690611eef9060016119c0565b906120f1565b60208201525b949350505050565b6000606462ffffff8416811115611f2c5760405162e41c4b60e31b815260040160405180910390fd5b6000611f3e62ffffff861660646119c0565b90506000611f6e87600001516001600160801b0316611eef8960200151600a611f6791906126f5565b88906119c0565b9050611f88612710611eef8365ffffffffffff86166119c0565b979650505050505050565b8115611fc7576001600160a01b03831660009081526006602052604081208054849290611fc19084906125bb565b90915550505b8015611ffe576001600160a01b03831660009081526006602052604081206001018054839290611ff89084906125bb565b90915550505b505050565b6000610b8b82846125bb565b600061271061ffff83161580612023575083155b15612032576000915050610500565b61206f61ffff80168461ffff161060405180604001604052806011815260200170496e746572657374206f766572666c6f7760781b8152506120fd565b6120978161ffff1685116040518060600160405280602681526020016127b7602691396120fd565b611efb8161ffff16611eef8561ffff16876119c090919063ffffffff16565b6000610b8b828461271a565b8280156120cc5750815b81906120eb5760405162461bcd60e51b8152600401610791919061272e565b50505050565b6000610b8b828461277d565b8082611ffe5760405162461bcd60e51b8152600401610791919061272e565b6040805160a0810182526000808252602082015290810161213b6121dc565b815260200161216460405180606001604052806000815260200160008152602001600081525090565b815260200161218d60405180606001604052806000815260200160008152602001600081525090565b905290565b6040518060e001604052806000151581526020016000815260200160008152602001600081526020016000815260200160006001600160a01b031681526020016000151581525090565b6040518060c001604052806000815260200160008152602001600081526020016000600181111561220f5761220f612560565b8152602001600081526020016000905290565b60006020828403121561223457600080fd5b5035919050565b6001600160a01b038116811461048d57600080fd5b60006020828403121561226257600080fd5b8135610b8b8161223b565b80356122788161223b565b919050565b634e487b7160e01b600052604160045260246000fd5b600082601f8301126122a457600080fd5b8135602067ffffffffffffffff808311156122c1576122c161227d565b8260051b604051601f19603f830116810181811084821117156122e6576122e661227d565b604052938452602081870181019490810192508785111561230657600080fd5b6020870191505b84821015611f885761231e8261226d565b8352918301919083019061230d565b803561ffff8116811461227857600080fd5b803562ffffff8116811461227857600080fd5b60008060008060008060c0878903121561236b57600080fd5b86356123768161223b565b9550602087013567ffffffffffffffff81111561239257600080fd5b61239e89828a01612293565b955050604087013593506123b46060880161232d565b92506123c26080880161232d565b91506123d060a0880161233f565b90509295509295509295565b600080604083850312156123ef57600080fd5b50508035926020909101359150565b60006020828403121561241057600080fd5b610b8b8261232d565b600080600080600080600060e0888a03121561243457600080fd5b873561243f8161223b565b9650602088013567ffffffffffffffff81111561245b57600080fd5b6124678a828b01612293565b96505060408801359450606088013560ff8116811461248557600080fd5b93506124936080890161232d565b92506124a160a0890161232d565b91506124af60c0890161233f565b905092959891949750929550565b600080604083850312156124d057600080fd5b82356124db8161223b565b946020939093013593505050565b600080604083850312156124fc57600080fd5b82359150602083013567ffffffffffffffff81111561251a57600080fd5b61252685828601612293565b9150509250929050565b6000806040838503121561254357600080fd5b8235915060208301356125558161223b565b809150509250929050565b634e487b7160e01b600052602160045260246000fd5b634e487b7160e01b600052603260045260246000fd5b60006020828403121561259e57600080fd5b5051919050565b634e487b7160e01b600052601160045260246000fd5b80820180821115610500576105006125a5565b8082028115828204841417610500576105006125a5565b81810381811115610500576105006125a5565b60006001820161260a5761260a6125a5565b5060010190565b600181815b8085111561264c578160001904821115612632576126326125a5565b8085161561263f57918102915b93841c9390800290612616565b509250929050565b60008261266357506001610500565b8161267057506000610500565b81600181146126865760028114612690576126ac565b6001915050610500565b60ff8411156126a1576126a16125a5565b50506001821b610500565b5060208310610133831016604e8410600b84101617156126cf575081810a610500565b6126d98383612611565b80600019048211156126ed576126ed6125a5565b029392505050565b6000610b8b60ff841683612654565b634e487b7160e01b600052601260045260246000fd5b60008261272957612729612704565b500690565b60006020808352835180602085015260005b8181101561275c57858101830151858201604001528201612740565b506000604082860101526040601f19601f8301168501019250505092915050565b60008261278c5761278c612704565b50049056fe5574696c733a2046756c6c447572206f72204475724f6643686f696365206f6572666c6f775072696e636970616c2073686f756c642062652067726561746572207468616e203130303030a26469706673582212206e195dd82f7b582f59b1d3bb87551cbf2b9d05f80b44e1d295b32ff8e118080864736f6c63430008180033",
  "devdoc": {
    "errors": {
      "OwnableInvalidOwner(address)": [
        {
          "details": "The owner is not a valid owner account. (eg. `address(0)`)"
        }
      ],
      "OwnableUnauthorizedAccount(address)": [
        {
          "details": "The caller account is not authorized to perform an operation."
        }
      ]
    },
    "kind": "dev",
    "methods": {
      "_getSafe(uint256)": {
        "details": "Returns the safe information",
        "params": {
          "unit": ": Unit contribution"
        }
      },
      "getCurrentDebt(uint256,address)": {
        "details": "Return accrued debt for user up to this moment.",
        "params": {
          "unit": ": Contribution amount.",
          "user": ": Contributor."
        }
      },
      "getPoint(address)": {
        "details": "Returns the point See _getPoint"
      },
      "getSafe(uint256)": {
        "details": "Returns the safe information See _getSafe"
      },
      "isPoolAvailable(uint256)": {
        "details": "Get pool from storage",
        "params": {
          "unit": ": Unit contribution"
        }
      },
      "isPoolVacant(uint256)": {
        "details": "Check if slot is available in the pool",
        "params": {
          "unit": ": Unit contribution"
        }
      },
      "owner()": {
        "details": "Returns the address of the current owner."
      },
      "renounceOwnership()": {
        "details": "Leaves the contract without owner. It will not be possible to call `onlyOwner` functions. Can only be called by the current owner. NOTE: Renouncing ownership will leave the contract without an owner, thereby disabling any functionality that is only available to the owner."
      },
      "setFee(uint16)": {
        "details": "Adjust fee",
        "params": {
          "newRate": ": New fee"
        }
      },
      "transferOwnership(address)": {
        "details": "Transfers ownership of the contract to a new account (`newOwner`). Can only be called by the current owner."
      }
    },
    "version": 1
  },
  "userdoc": {
    "kind": "user",
    "methods": {
      "getCurrentDebt(uint256,address)": {
        "notice": "This is the total accrued debt between the date user was paid and now."
      }
    },
    "version": 1
  },
  "storageLayout": {
    "storage": [
      {
        "astId": 8,
        "contract": "contracts/Simplifi.sol:Simplifi",
        "label": "_owner",
        "offset": 0,
        "slot": "0",
        "type": "t_address"
      },
      {
        "astId": 2157,
        "contract": "contracts/Simplifi.sol:Simplifi",
        "label": "agent",
        "offset": 0,
        "slot": "1",
        "type": "t_address"
      },
      {
        "astId": 2159,
        "contract": "contracts/Simplifi.sol:Simplifi",
        "label": "makerRate",
        "offset": 0,
        "slot": "2",
        "type": "t_uint256"
      },
      {
        "astId": 3189,
        "contract": "contracts/Simplifi.sol:Simplifi",
        "label": "pastRecords",
        "offset": 0,
        "slot": "3",
        "type": "t_uint256"
      },
      {
        "astId": 3197,
        "contract": "contracts/Simplifi.sol:Simplifi",
        "label": "pools",
        "offset": 0,
        "slot": "4",
        "type": "t_mapping(t_uint256,t_mapping(t_enum(UnitStatus)1535,t_struct(Pool)1557_storage))"
      },
      {
        "astId": 3299,
        "contract": "contracts/Simplifi.sol:Simplifi",
        "label": "safes",
        "offset": 0,
        "slot": "5",
        "type": "t_mapping(t_uint256,t_struct(Safe)1543_storage)"
      },
      {
        "astId": 3119,
        "contract": "contracts/Simplifi.sol:Simplifi",
        "label": "points",
        "offset": 0,
        "slot": "6",
        "type": "t_mapping(t_address,t_struct(Point)1585_storage)"
      },
      {
        "astId": 3357,
        "contract": "contracts/Simplifi.sol:Simplifi",
        "label": "token",
        "offset": 0,
        "slot": "7",
        "type": "t_contract(IERC20)1775"
      },
      {
        "astId": 2232,
        "contract": "contracts/Simplifi.sol:Simplifi",
        "label": "contributors",
        "offset": 0,
        "slot": "8",
        "type": "t_mapping(t_uint256,t_mapping(t_uint256,t_struct(Contributor)1608_storage))"
      },
      {
        "astId": 2236,
        "contract": "contracts/Simplifi.sol:Simplifi",
        "label": "userCounts",
        "offset": 0,
        "slot": "9",
        "type": "t_mapping(t_uint256,t_uint256)"
      },
      {
        "astId": 2242,
        "contract": "contracts/Simplifi.sol:Simplifi",
        "label": "positions",
        "offset": 0,
        "slot": "10",
        "type": "t_mapping(t_address,t_mapping(t_uint256,t_uint256))"
      }
    ],
    "types": {
      "t_address": {
        "encoding": "inplace",
        "label": "address",
        "numberOfBytes": "20"
      },
      "t_bool": {
        "encoding": "inplace",
        "label": "bool",
        "numberOfBytes": "1"
      },
      "t_bytes32": {
        "encoding": "inplace",
        "label": "bytes32",
        "numberOfBytes": "32"
      },
      "t_contract(IERC20)1775": {
        "encoding": "inplace",
        "label": "contract IERC20",
        "numberOfBytes": "20"
      },
      "t_enum(Router)1538": {
        "encoding": "inplace",
        "label": "enum Common.Router",
        "numberOfBytes": "1"
      },
      "t_enum(Stage)1529": {
        "encoding": "inplace",
        "label": "enum Common.Stage",
        "numberOfBytes": "1"
      },
      "t_enum(Status)1532": {
        "encoding": "inplace",
        "label": "enum Common.Status",
        "numberOfBytes": "1"
      },
      "t_enum(UnitStatus)1535": {
        "encoding": "inplace",
        "label": "enum Common.UnitStatus",
        "numberOfBytes": "1"
      },
      "t_mapping(t_address,t_mapping(t_uint256,t_uint256))": {
        "encoding": "mapping",
        "key": "t_address",
        "label": "mapping(address => mapping(uint256 => uint256))",
        "numberOfBytes": "32",
        "value": "t_mapping(t_uint256,t_uint256)"
      },
      "t_mapping(t_address,t_struct(Point)1585_storage)": {
        "encoding": "mapping",
        "key": "t_address",
        "label": "mapping(address => struct Common.Point)",
        "numberOfBytes": "32",
        "value": "t_struct(Point)1585_storage"
      },
      "t_mapping(t_enum(UnitStatus)1535,t_struct(Pool)1557_storage)": {
        "encoding": "mapping",
        "key": "t_enum(UnitStatus)1535",
        "label": "mapping(enum Common.UnitStatus => struct Common.Pool)",
        "numberOfBytes": "32",
        "value": "t_struct(Pool)1557_storage"
      },
      "t_mapping(t_uint256,t_mapping(t_enum(UnitStatus)1535,t_struct(Pool)1557_storage))": {
        "encoding": "mapping",
        "key": "t_uint256",
        "label": "mapping(uint256 => mapping(enum Common.UnitStatus => struct Common.Pool))",
        "numberOfBytes": "32",
        "value": "t_mapping(t_enum(UnitStatus)1535,t_struct(Pool)1557_storage)"
      },
      "t_mapping(t_uint256,t_mapping(t_uint256,t_struct(Contributor)1608_storage))": {
        "encoding": "mapping",
        "key": "t_uint256",
        "label": "mapping(uint256 => mapping(uint256 => struct Common.Contributor))",
        "numberOfBytes": "32",
        "value": "t_mapping(t_uint256,t_struct(Contributor)1608_storage)"
      },
      "t_mapping(t_uint256,t_struct(Contributor)1608_storage)": {
        "encoding": "mapping",
        "key": "t_uint256",
        "label": "mapping(uint256 => struct Common.Contributor)",
        "numberOfBytes": "32",
        "value": "t_struct(Contributor)1608_storage"
      },
      "t_mapping(t_uint256,t_struct(Safe)1543_storage)": {
        "encoding": "mapping",
        "key": "t_uint256",
        "label": "mapping(uint256 => struct Common.Safe)",
        "numberOfBytes": "32",
        "value": "t_struct(Safe)1543_storage"
      },
      "t_mapping(t_uint256,t_uint256)": {
        "encoding": "mapping",
        "key": "t_uint256",
        "label": "mapping(uint256 => uint256)",
        "numberOfBytes": "32",
        "value": "t_uint256"
      },
      "t_struct(BigInt)1580_storage": {
        "encoding": "inplace",
        "label": "struct Common.BigInt",
        "members": [
          {
            "astId": 1575,
            "contract": "contracts/Simplifi.sol:Simplifi",
            "label": "unit",
            "offset": 0,
            "slot": "0",
            "type": "t_uint256"
          },
          {
            "astId": 1577,
            "contract": "contracts/Simplifi.sol:Simplifi",
            "label": "currentPool",
            "offset": 0,
            "slot": "1",
            "type": "t_uint256"
          },
          {
            "astId": 1579,
            "contract": "contracts/Simplifi.sol:Simplifi",
            "label": "recordId",
            "offset": 0,
            "slot": "2",
            "type": "t_uint256"
          }
        ],
        "numberOfBytes": "96"
      },
      "t_struct(Contributor)1608_storage": {
        "encoding": "inplace",
        "label": "struct Common.Contributor",
        "members": [
          {
            "astId": 1595,
            "contract": "contracts/Simplifi.sol:Simplifi",
            "label": "isMember",
            "offset": 0,
            "slot": "0",
            "type": "t_bool"
          },
          {
            "astId": 1597,
            "contract": "contracts/Simplifi.sol:Simplifi",
            "label": "payDate",
            "offset": 0,
            "slot": "1",
            "type": "t_uint256"
          },
          {
            "astId": 1599,
            "contract": "contracts/Simplifi.sol:Simplifi",
            "label": "turnTime",
            "offset": 0,
            "slot": "2",
            "type": "t_uint256"
          },
          {
            "astId": 1601,
            "contract": "contracts/Simplifi.sol:Simplifi",
            "label": "loan",
            "offset": 0,
            "slot": "3",
            "type": "t_uint256"
          },
          {
            "astId": 1603,
            "contract": "contracts/Simplifi.sol:Simplifi",
            "label": "colBals",
            "offset": 0,
            "slot": "4",
            "type": "t_uint256"
          },
          {
            "astId": 1605,
            "contract": "contracts/Simplifi.sol:Simplifi",
            "label": "id",
            "offset": 0,
            "slot": "5",
            "type": "t_address"
          },
          {
            "astId": 1607,
            "contract": "contracts/Simplifi.sol:Simplifi",
            "label": "sentQuota",
            "offset": 20,
            "slot": "5",
            "type": "t_bool"
          }
        ],
        "numberOfBytes": "192"
      },
      "t_struct(Interest)1592_storage": {
        "encoding": "inplace",
        "label": "struct Common.Interest",
        "members": [
          {
            "astId": 1587,
            "contract": "contracts/Simplifi.sol:Simplifi",
            "label": "fullInterest",
            "offset": 0,
            "slot": "0",
            "type": "t_uint256"
          },
          {
            "astId": 1589,
            "contract": "contracts/Simplifi.sol:Simplifi",
            "label": "intPerSec",
            "offset": 0,
            "slot": "1",
            "type": "t_uint256"
          },
          {
            "astId": 1591,
            "contract": "contracts/Simplifi.sol:Simplifi",
            "label": "intPerChoiceOfDur",
            "offset": 0,
            "slot": "2",
            "type": "t_uint256"
          }
        ],
        "numberOfBytes": "96"
      },
      "t_struct(LowInt)1573_storage": {
        "encoding": "inplace",
        "label": "struct Common.LowInt",
        "members": [
          {
            "astId": 1559,
            "contract": "contracts/Simplifi.sol:Simplifi",
            "label": "quorum",
            "offset": 0,
            "slot": "0",
            "type": "t_uint256"
          },
          {
            "astId": 1561,
            "contract": "contracts/Simplifi.sol:Simplifi",
            "label": "colCoverage",
            "offset": 0,
            "slot": "1",
            "type": "t_uint256"
          },
          {
            "astId": 1563,
            "contract": "contracts/Simplifi.sol:Simplifi",
            "label": "duration",
            "offset": 0,
            "slot": "2",
            "type": "t_uint256"
          },
          {
            "astId": 1566,
            "contract": "contracts/Simplifi.sol:Simplifi",
            "label": "status",
            "offset": 0,
            "slot": "3",
            "type": "t_enum(Status)1532"
          },
          {
            "astId": 1569,
            "contract": "contracts/Simplifi.sol:Simplifi",
            "label": "router",
            "offset": 1,
            "slot": "3",
            "type": "t_enum(Router)1538"
          },
          {
            "astId": 1572,
            "contract": "contracts/Simplifi.sol:Simplifi",
            "label": "stage",
            "offset": 2,
            "slot": "3",
            "type": "t_enum(Stage)1529"
          }
        ],
        "numberOfBytes": "128"
      },
      "t_struct(Point)1585_storage": {
        "encoding": "inplace",
        "label": "struct Common.Point",
        "members": [
          {
            "astId": 1582,
            "contract": "contracts/Simplifi.sol:Simplifi",
            "label": "contributor",
            "offset": 0,
            "slot": "0",
            "type": "t_uint256"
          },
          {
            "astId": 1584,
            "contract": "contracts/Simplifi.sol:Simplifi",
            "label": "creator",
            "offset": 0,
            "slot": "1",
            "type": "t_uint256"
          }
        ],
        "numberOfBytes": "64"
      },
      "t_struct(Pool)1557_storage": {
        "encoding": "inplace",
        "label": "struct Common.Pool",
        "members": [
          {
            "astId": 1545,
            "contract": "contracts/Simplifi.sol:Simplifi",
            "label": "admin",
            "offset": 0,
            "slot": "0",
            "type": "t_address"
          },
          {
            "astId": 1547,
            "contract": "contracts/Simplifi.sol:Simplifi",
            "label": "beneficiary",
            "offset": 0,
            "slot": "1",
            "type": "t_address"
          },
          {
            "astId": 1550,
            "contract": "contracts/Simplifi.sol:Simplifi",
            "label": "lInt",
            "offset": 0,
            "slot": "2",
            "type": "t_struct(LowInt)1573_storage"
          },
          {
            "astId": 1553,
            "contract": "contracts/Simplifi.sol:Simplifi",
            "label": "bigInt",
            "offset": 0,
            "slot": "6",
            "type": "t_struct(BigInt)1580_storage"
          },
          {
            "astId": 1556,
            "contract": "contracts/Simplifi.sol:Simplifi",
            "label": "interest",
            "offset": 0,
            "slot": "9",
            "type": "t_struct(Interest)1592_storage"
          }
        ],
        "numberOfBytes": "384"
      },
      "t_struct(Safe)1543_storage": {
        "encoding": "inplace",
        "label": "struct Common.Safe",
        "members": [
          {
            "astId": 1540,
            "contract": "contracts/Simplifi.sol:Simplifi",
            "label": "id",
            "offset": 0,
            "slot": "0",
            "type": "t_address"
          },
          {
            "astId": 1542,
            "contract": "contracts/Simplifi.sol:Simplifi",
            "label": "ownerHash",
            "offset": 0,
            "slot": "1",
            "type": "t_bytes32"
          }
        ],
        "numberOfBytes": "64"
      },
      "t_uint256": {
        "encoding": "inplace",
        "label": "uint256",
        "numberOfBytes": "32"
      }
    }
  }
}